:100000000C943A000C9457000C9457000C9479000F
:100010000C9465010C9457000C9457000C945700F5
:100020000C9457000C9457000C9457000C94B40097
:100030000C9457000C9457000C9457000C945700E4
:100040000C9457000C9457000C9424020C94570005
:100050000C9457000C9457000C9457000C945700C4
:100060000C9457000C9457006364696E6F7073753D
:1000700078585B0011241FBECFEFD8E0DEBFCDBFA4
:1000800011E0A0E0B1E0E4EDF4E102C005900D92D2
:10009000A836B107D9F721E0A8E6B1E001C01D926A
:1000A000A837B207E1F70E946E020C94680A0C941C
:1000B0000000CF93DF9300D0CDB7DEB7CE0101961D
:1000C0009F938F9381E091E09F938F938CE691E0D3
:1000D0009F938F930E946F040F900F900F900F903B
:1000E0000F900F9089819A810F900F90DF91CF919F
:1000F00008951F921FB61F9211248F9380916A0159
:1001000081111EC081E080936A0180916B00806143
:1001100080936B0080916B00877F80936B001092BF
:10012000740110927301109271012D9A80918100D7
:100130008160809381008F911F901FBE1F90189542
:1001400010926A0180916B00886080936B008091AF
:100150006B008F7E80936B0081E0809371012D98FE
:10016000809181008E7FE5CF8F938FB78F939F9380
:100170008091730190917401019690937401809322
:1001800073019F918F918FBF8F9118959BB19F7035
:100190009BB99BB1807F892B8BB9299A299A299881
:1001A0000895CF93C82F28980E94C6008C2F82955F
:1001B000807F0E94C6008FE39FE10197F1F700C0A6
:1001C0000000CF910895811105C06058862F90E0FE
:1001D0000C94D1006054FACF209A219A549A559ADF
:1001E000569A579A8FE59AEE0197F1F700C00000F2
:1001F00080E30E94C6008FE19EE40197F1F700C002
:10020000000080E30E94C6008FED91E00197F1F7B6
:1002100000C0000080E30E94C60080E20E94C60089
:100220008FE39FE10197F1F700C0000088E290E0C2
:100230000E94D1008FE090E00C94D100CF93C82FA2
:10024000289A0E94C6008C2F8295807F0E94C6004B
:100250008FE39FE10197F1F700C00000CF9108956F
:10026000CF93DF93EC018991811103C0DF91CF918E
:100270000895082E000C990B0E941E01F4CF809166
:10028000680082608093680080916C008063809336
:100290006C00789488B1806388B996B1892F807199
:1002A00095FD0DC0811107C01092750180917501F7
:1002B00080936901089581E080937501F7CF8111E2
:1002C00002C082E0F9CF83E0F7CF1F921FB61F92E2
:1002D00011242F938F939F9386B1982F90718072E2
:1002E0002091750121110CC0992321F081E08093A8
:1002F000690122C0882329F182E08093690108C046
:1003000020917501213061F4911106C010926901AC
:1003100080917601815013C0882399F083E0E7CF64
:1003200020917501223011F5992311F083E0E5CF7A
:10033000811107C010926901809176018F5F8093CF
:100340007601809176018436E8F083E68093760129
:10035000809169018093750181E0809372019F9182
:100360008F912F911F901FBE1F901895209175019E
:10037000233039F7911102C082E0B9CF8111E1CF6A
:1003800081E0BBCF809176018111E2CF81E0DECFA9
:10039000E1ECF0E080818068808387E690E09093D4
:1003A000C5008093C40080818861808386E080934B
:1003B000C200E0ECF0E080818D7F808310926B01C1
:1003C0001092770108950F931F93CF93DF9300D07E
:1003D00000D00F92CDB7DEB79F938F9384E691E064
:1003E0009F938F931F9285E08F938E010F5F1F4F16
:1003F0001F930F930E943F048CE38093C6000FB6B7
:10040000F894DEBF0FBECDBF8091C00085FFFCCF4A
:10041000F8018191811111C08EE38093C600809113
:10042000C00085FFFCCF0F900F900F900F900F90A2
:10043000DF91CF911F910F9108958093C600809115
:10044000C00085FFFCCFE5CF1F921FB61F9211247D
:100450008F939F93EF93FF938091C6008C3379F431
:1004600081E0809377011092680110926B01FF91F7
:10047000EF919F918F911F901FBE1F9018958E3303
:1004800081F490916801992361F010927701E091D5
:100490006801F0E0E459FE4F108281E080936B0127
:1004A000E6CF90917701992311F390ED980F9A3050
:1004B00028F01092680110927701D9CF90916801CD
:1004C0009430B8F7E0916801F0E0E459FE4F808382
:1004D000809168018F5F80936801C9CFCDB7DEB787
:1004E00061970FB6F894DEBF0FBECDBF529A5A98EF
:1004F0000E94EC000E943F010E94C801539A809123
:10050000680081608093680080916B0088608093B0
:100510006B007894259A10926A0110927101809173
:10052000810088608093810080916F008260809359
:100530006F0080E89EE3909389008093880070E0CC
:1005400060E090E080E00E94E30085E091E00E949E
:10055000300170E060E081E090E00E94E30083E120
:1005600091E00E9430012FEF43ED50E321504040D5
:100570005040E1F700C0000081E090E00E94D1000F
:1005800070E060E090E080E00E94E3008EE191E0A6
:100590000E94300170E060E081E090E00E94E300A2
:1005A00082E391E00E94300180E091E00E94170A0E
:1005B0009FEF980F933608F082E38093760165E011
:1005C00070E090E080E00E94E300809176011F924D
:1005D0008F9386E491E09F938F931F9283E08F9394
:1005E000CE0101967C019F938F930E943F04C70127
:1005F0000E9430010FB6F894DEBF0FBECDBF36E4C7
:10060000432E31E0532E40E5A42E43ECB42E5AE4A1
:10061000652E51E0752E67E0362E70E5C72E71E02D
:10062000D72E2AE0222E8091730190917401813A95
:100630009F4090F010926A0180916B0088608093D7
:100640006B0080916B008F7E80936B002D98809162
:1006500081008E7F8093810080917201882319F13F
:10066000809176011F928F935F924F921F9223E0A9
:100670002F93FF92EF920E943F046091760180E0F9
:1006800091E00E941F0A65E070E090E080E00E9427
:10069000E300C7010E943001109272010FB6F89476
:1006A000DEBF0FBECDBF80917101882309F473C0F6
:1006B0006091730170917401C5010E94170477FF66
:1006C00002C070E060E08B016031774214F00FE00F
:1006D00017E2C8010E94E3016AE070E090E080E068
:1006E0000E94E300809174018F93809173018F9336
:1006F0007F926F921F923F92FF92EF920E943F046F
:10070000C7010E94300167E070E081E090E00E9444
:10071000E3009AE0892E912CC801B4010E942B04B9
:100720009F938F937F936F93DF92CF921F922F921D
:10073000FF92EF920E943F04C7010E943001209176
:100740007601C80109960FB6F894DEBF0FBECDBF83
:10075000B4010E942B0426171706DCF484E690E00F
:100760005B9AEFE3FFE13197F1F700C000005B987F
:10077000EFE3FFE13197F1F700C00000019781F747
:10078000FFEF21EE44E0F15020404040E1F700C08F
:1007900000001092710180916B01882309F443CF0E
:1007A0000E9459008C0110926B0162E070E081E0C0
:1007B00090E00E94E3008AE0882E912CC801B401E9
:1007C0000E942B049F938F937F936F938CE591E00E
:1007D0009F938F931F928AE08F93FF92EF920E94D4
:1007E0003F04C7010E94300120917601C80109969B
:1007F000B4010E942B040FB6F894DEBF0FBECDBF2C
:10080000261717060CF00DCF84E690E05B9AEFE315
:10081000FFE13197F1F700C000005B98EFE3FFE1E3
:100820003197F1F700C00000019781F7FACEAA1BBB
:10083000BB1B51E107C0AA1FBB1FA617B70710F0CB
:10084000A61BB70B881F991F5A95A9F780959095FD
:10085000BC01CD01089597FB072E16F4009407D034
:1008600077FD09D00E94170407FC05D03EF490954F
:1008700081959F4F0895709561957F4F0895AEE0E3
:10088000B0E0E5E4F4E00C943F0A0D891E898F89FD
:10089000988D26E02C831A83098397FF02C080E09D
:1008A00090E801979E838D83AE01455E5F4F698D11
:1008B0007A8DCE0101960E9488044D815E8157FD9C
:1008C0000AC02F813885421753070CF49A01020F92
:1008D000131FF80110822E96E4E00C945B0AAEE040
:1008E000B0E0E5E7F4E00C94410A85E08C838B8965
:1008F0009C899A838983AE01495E5F4F6D897E89A9
:10090000CE0101960E94E7072E96E2E00C945D0A64
:10091000AFE0B0E0EEE8F4E00C94310A7C013B017A
:100920008A01DC0117961C921E92169713968C91E1
:1009300081FFC3C19AE0292EFE0131964F01D701F4
:1009400013969C91F30193FD859193FF81913F0153
:10095000882309F448C1853239F493FD859193FFCA
:1009600081913F01853229F4B70190E00E946E0920
:10097000E6CFB12C412C512CBFE1B51538F08B32AC
:1009800009F188F4803201F1833221F157FC3AC039
:1009900020ED280F2A3040F556FE1FC0B29C200DD6
:1009A0001124B22E06C08D3291F0803379F768940D
:1009B00050F8F30193FD859193FF81913F018111DF
:1009C000DBCF20C0689451F8689452F8F2CF689455
:1009D00053F8EFCF689454F8ECCF429C200D1124CB
:1009E000422E689455F8E5CF8E3229F456FCFBC0B0
:1009F000689456F8DECF8C3619F4689457F8D9CF3E
:100A00008836B9F2982F9F7D95549330C0F0833685
:100A1000A1F18337C1F1833509F05BC0D801CD90D6
:100A2000DD908D016B2D70E056FC02C06FEF7FEF03
:100A3000C6010E941A095C01689457F80AC00C5F4D
:100A40001F4FEFE3E983AA24A394B12C6401E89437
:100A500057F853FC04C04A141B0409F018F5342C51
:100A6000A114B10431F5332009F469CFB70180E254
:100A700090E00E946E093A94F6CFD8018C91898358
:100A80000E5F1F4FE0CFF801C190D1908F016B2D09
:100A900070E056FC02C06FEF7FEFC6010E9425098F
:100AA0005C01D5CFB70180E290E00E946E094A94C4
:100AB000D2CFF60157FC859157FE81916F01B701A6
:100AC00090E00E946E0931103A94B1E0AB1AB1087F
:100AD000C7CF843619F0893609F074C0F80157FE83
:100AE0006AC061917191819191918F01E52DEF76AD
:100AF000DE2E97FF09C090958095709561957F4F88
:100B00008F4F9F4F6894D7F82AE030E0A4010E94ED
:100B1000B609C82EC818AC2C5D2CD6FE0CC0E894C3
:100B200050F8CB1440F4D4FE05C0D2FC03C05D2DB8
:100B30005E7E552EAB2C54FE98C0FE01EC0DF11DCF
:100B40008081803309F08AC0652D697E562E752D0F
:100B50007870372E53FC98C050FE92C0BC2CA41461
:100B600018F44C0CB42CBA1854FE94C0B70180E3AE
:100B700090E00E946E0952FE09C088E790E051FEA5
:100B800002C088E590E0B7010E946E09CB1408F41A
:100B90008DC0CA94D12C8FEFC81AD80AC80CD91CA2
:100BA000D6018E916D01B70190E00E946E098C1400
:100BB0009D04B1F758CF61917191072E000C880BFD
:100BC000990B93CFD52CE894D4F82AE030E0853700
:100BD00039F1F52DF97FDF2E8037A9F058F48835EB
:100BE000A9F08F36D9F0F701868197812F96E2E13F
:100BF0000C944D0A8837B9F7D4FE02C06894D2F835
:100C000020E130E00DC06894D4F8F6CF54FE03C064
:100C10002F2F2660D22E20E132E002C028E030E003
:100C2000F801D7FE15C041915191619171914C87A6
:100C30005D876E877F878F01A4016C857D858E859A
:100C40009F850E94B609C82EC818E894D7F863CFCC
:100C500081919191AC0170E060E0E9CF52FC02C05B
:100C6000A39475CFA394A39472CF852D867809F4AD
:100C70006ECFF6CFB70180E290E00E946E09A39498
:100C8000A414C0F3312C70CF342C3A18A41408F4F7
:100C90006BCFF8CF852D867809F478CF8BE251FEA3
:100CA00080E257FC8DE2B70190E06ECFB70180E3A0
:100CB00090E00E946E09BA9469CF8FEF9FEF96CFB4
:100CC000FC01CA01DB0120FD08C023FD05C022FF95
:100CD00002C0B383A283918380830895CF92DF9271
:100CE000EF92FF92CF93DF9300D000D0CDB7DEB765
:100CF0006B017C0183E044FD10C084E046FD0DC023
:100D0000D601F701AA0FBB1FEE1FFF1F1094D1F7EA
:100D1000CA0EDB1EEE1EFF1E81E0CC0CDD1CEE1C9D
:100D2000FF1C8150D1F7D701C601820F911DA11D73
:100D3000B11DBC01CD010F900F900F900F90DF916E
:100D4000CF91FF90EF90DF90CF9008950F931F9376
:100D5000CF93DF938C01C8010E943009EC0197FD0D
:100D600008C00E940609892BB1F7B801CE010E9484
:100D70009E09CE01DF91CF911F910F910895B0E0B0
:100D8000A0E0E5ECF6E00C94390A8C01C62F5A017C
:100D9000F22E0E943009FC019927EB3221F08D9749
:100DA00081F46894F7F8C15031F480E0CDB7DEB734
:100DB000EAE00C94550AC8010E943009FC0197FD35
:100DC000F4CFDF2DDD7F8F2D807309F5E033F9F44B
:100DD000EE24EA94EC0EC13091F0C8010E94300973
:100DE000FC0197FD0CC08F7D883569F4D264C25038
:100DF00031F0C8010E943009FC0197FF08C0C12CE6
:100E0000D12C76011CC0F6FE2CC0D260CE2DC12C98
:100E1000D12C760120ED2E0F283030F1D4FD09C001
:100E20002A3010F1D6FF05C02F7D8FEE820F86305D
:100E3000D0F0B801CF010E949E09D1FFB6CFD7FFF5
:100E400008C0F094E094D094C094C11CD11CE11C63
:100E5000F11C2D2FB701A601C5010E94600681E09B
:100E6000A5CFD261D3CF27504D2FC701B6010E9425
:100E70006E066B017C01D260C15009F3C8010E946B
:100E80003009FC0197FFC6CFD8CFA0E2B0E0EBE479
:100E9000F7E00C94370A6C01962E7A01CE01019688
:100EA0005C0180E2F50111928A95E9F7F6018380F1
:100EB000890150E040E0B0E020E0A0E061E070E0B7
:100EC000F80183FC959183FE9191892F8F019111F7
:100ED00007C010E000E0C801A096ECE00C94530AB3
:100EE0009E3519F44115510531F1A4171506ECF49E
:100EF0009D3549F19D32C9F4222309F1E82FE69589
:100F0000E695E695EA0DFB2DF11D982F97709B0154
:100F100001C0220F9A95EAF79081292B20838B1725
:100F200081F08B1730F48F5FE9CF2111E7CFB92F14
:100F3000E5CF8150E3CFA1E04F5F5F4FC1CF21E00C
:100F4000FBCF20E0F9CF222319F08E8180628E83BF
:100F5000AA2361F0F5019E012F5D3F4F8081DF01E3
:100F6000319680958C93E217F307C1F78824839418
:100F7000C6010E94300997FD16C0E82FE695E69558
:100F8000E695EA0DFB2DF11D208130E0AC014770A4
:100F9000552702C0359527954A95E2F720FD06C0F2
:100FA000B6010E949E09882059F093CFE114F10404
:100FB00019F0F70181937F019A94812C9110D8CF79
:100FC000E114F10409F487CFF701108284CFA6E081
:100FD000B0E0EDEEF7E00C94350A5C016D837E83A2
:100FE000742E652EDC0117961C921E921697C12C4A
:100FF000D5011396FC90ED81FE81F3FC8591F3FE03
:101000008191182FFE83ED838823F9F090E00E94F0
:101010000609892B21F0C5010E94A606E9CF1532E9
:1010200051F4ED81FE81F3FC1591F3FE1191FE83E5
:10103000ED83153269F4C5010E94300997FDA2C005
:101040001817B1F2B5010E949E098C2D90E09EC048
:1010500000E01A3249F4ED81FE81F3FC1591F3FEB4
:101060001191FE83ED8301E0D12C20ED210F2A3078
:1010700060F101FF42C0DD2041F3183609F440C0A1
:101080001C3609F449C0112301F3612F70E088E692
:1010900090E00E940F09892BC1F2F12CE12C00FD98
:1010A00006C0E72DF62DE190F1907E2E6F2E1E36B4
:1010B00009F03CC0D50116964D915C9170E060E05E
:1010C000202FC7010E94600693CF02608D2D90E013
:1010D000B0E0A0E089839A83AB83BC8340E2BC018B
:1010E000CD010E946E06D62EED81FE81F3FC159196
:1010F000F3FE1191FE83ED83B8CFDD24DA94BDCFEA
:10110000ED81FE81F3FC1591F3FE1191FE83ED83D9
:10111000183609F0B8CF08600460ED81FE81F3FC59
:101120001591F3FE1191FE83ED83ADCF1336B1F42B
:1011300001FD02C0DD24D394C5010E94300997FD52
:1011400021C0E114F10419F0F70181937F01DA94D1
:10115000D110F2CF00FD4CCFC3944ACF1B35D1F450
:101160002D813E81A7016D2DC5010E9445078D830C
:101170009E83ED81FE81EF2B69F7F50183818073FA
:1011800009F463CF8FEF9FEFC1105FCF2696EEE09B
:101190000C94510AC5010E94A60697FDF3CF1F3695
:1011A00099F130F4143641F0193639F0006405C075
:1011B0001337A9F01537D1F70062202FA7016D2D45
:1011C000C5010E94BF068111C5CFD7CFE114F1043C
:1011D00019F0F70181927F01DA94DD2071F0C501E9
:1011E0000E9430094C0197FD08C00E940609892B16
:1011F00069F3B501C4010E949E09E114F10409F4E8
:10120000A9CFD7011C92A6CF0061D7CF91110C9422
:10121000140A803219F089508550C8F70895FC01EE
:101220000590061621F00020D9F7C00108953197E6
:10123000CF010895FC010590615070400110D8F76E
:10124000809590958E0F9F1F0895FC01615070400E
:1012500001900110D8F7809590958E0F9F1F0895EB
:10126000CF93DF93EC018B8180FF33C086FF0CC0EE
:101270008F7B8B838E819F8101969F838E838A8152
:1012800090E0DF91CF91089582FF15C0E881F98148
:101290009081292F092E000C330B80629923C1F015
:1012A0003196F983E8838E819F8101969F838E8397
:1012B000C9019927E6CFEA85FB85CE0109959C01F6
:1012C00097FFF1CF8B812F3F3F4F31F090E2892B79
:1012D0008B838FEF9FEFD5CF90E1F9CF0F931F93C3
:1012E000CF93DF93182F092FEB018B8181FD09C06C
:1012F0001FEF0FEF812F902FDF91CF911F910F9153
:10130000089582FF14C02E813F818C819D81281712
:1013100039073CF4E881F981CF01019699838883EC
:1013200010838E819F8101969F838E83E3CFE88512
:10133000F985812F0995892BA1F3DACFFB01238150
:1013400020FF11C026FD0FC08F3F980771F08283E8
:101350002F7D2064238326813781215031093783F3
:101360002683992708958FEF9FEF0895FA01AA2702
:10137000283051F1203181F1E8946F936E7F6E5FD8
:101380007F4F8F4F9F4FAF4FB1E03ED0B4E03CD086
:10139000670F781F891F9A1FA11D680F791F8A1F69
:1013A000911DA11D6A0F711D811D911DA11D20D0D0
:1013B00009F468943F912AE0269F11243019305D8A
:1013C0003193DEF6CF010895462F4770405D41937B
:1013D000B3E00FD0C9F7F6CF462F4F70405D4A33C8
:1013E00018F0495D31FD4052419302D0A9F7EACF90
:1013F000B4E0A6959795879577956795BA95C9F7BF
:1014000000976105710508959B01AC010A2E0694B1
:101410005795479537952795BA95C9F7620F731F6A
:10142000841F951FA01D0895992788270895F9996D
:10143000FECF92BD81BDF89A992780B50895262FD9
:10144000F999FECF92BD81BDF89A019700B40216BA
:1014500039F01FBA20BD0FB6F894FA9AF99A0FBE68
:1014600008952F923F924F925F926F927F928F9248
:101470009F92AF92BF92CF92DF92EF92FF920F9323
:101480001F93CF93DF93CDB7DEB7CA1BDB0B0FB62D
:10149000F894DEBF0FBECDBF09942A8839884888EA
:1014A0005F846E847D848C849B84AA84B984C88480
:1014B000DF80EE80FD800C811B81AA81B981CE0F77
:1014C000D11D0FB6F894DEBF0FBECDBFED0108955C
:0414D000F894FFCFBE
:1014D40064256864004E69636F6C6173204E6576A1
:1014E400656E0053706565642054726170004D61CF
:1014F400783A202020202020202020202020202076
:101504002000533A202020202020202020202020AA
:10151400202020202000253264002534646D7300CF
:101524002533642E253164636D2F73002533642EB7
:0815340025316400256400006C
:00000001FF
