:100000000C9434000C9451000C9451000C94510049
:100010000C9451000C9451000C9451000C9451001C
:100020000C9451000C9451000C9451000C9451000C
:100030000C9451000C9451000C9451000C945100FC
:100040000C9451000C9451000C94E8000C94510055
:100050000C9451000C9451000C9451000C945100DC
:100060000C9451000C94510011241FBECFEFD8E026
:10007000DEBFCDBF11E0A0E0B1E0ECE9F4E002C0EA
:1000800005900D92A63EB107D9F721E0A6EEB1E0AA
:1000900001C01D92AB3EB207E1F70E94B1010C9482
:1000A0004C020C9400000F931F93CF93DF93EC014D
:1000B0008B0180E00E949B01282F30E02C173D0728
:1000C00024F081E0021713070CF480E08170DF91C7
:1000D000CF911F910F9108950F931F93CF93DF93AB
:1000E000EC018B012FEF81EE94E021508040904095
:1000F000E1F700C00000B801CE010E945300811159
:10010000FACFDF91CF911F910F9108950F931F9315
:10011000CF93DF93CDB7DEB761970FB6F894DEBF0C
:100120000FBECDBF8E010F5F1F4F81E1F80111920D
:100130008A95E9F780E2898360E080E00E943101DE
:10014000C8010E947B0160E080E00E943101E091E3
:10015000E901F091EA01EE0FFF1FE050FF4F8081AF
:1001600091810E947B0161960FB6F894DEBF0FBEAD
:10017000CDBFDF91CF911F910F91089560E081E095
:100180000E94310184E191E00C947B019093C500C1
:100190008093C400E1ECF0E080818861808386E098
:1001A0008093C200539A5B9808959091C00095FF88
:1001B000FCCF8093C6000895CF93DF93EC01899123
:1001C000882319F00E94D500FACFDF91CF910895CE
:1001D0001F920F920FB60F9211242F938F939F931C
:1001E000EF93FF938091E6019091E7012091C60083
:1001F000FC01EC5EFE4F208301969093E701809313
:10020000E601409739F481E08093E8011092E7011C
:100210001092E601FF91EF919F918F912F910F9096
:100220000FBE0F901F9018959BB19F709BB99BB10B
:10023000807F892B8BB9299A299A29980895CF9381
:10024000C82F28980E9414018C2F8295807F0E94CD
:1002500014018FE39FE10197F1F700C00000CF91F7
:100260000895811102C080E801C080EC860F0C94D3
:100270001F01209A219A549A559A569A579A8FE5B7
:100280009AEE0197F1F700C0000080E30E9414018C
:100290008FE19EE40197F1F700C0000080E30E9427
:1002A00014018FED91E00197F1F700C0000080E3A9
:1002B0000E94140180E20E9414018FE39FE10197E4
:1002C000F1F700C0000088E20E941F018FE00C944B
:1002D0001F01CF93C82F289A0E9414018C2F82955A
:1002E000807F0E9414018FE39FE10197F1F700C026
:1002F0000000CF910895CF93DF93EC01899188237B
:1003000019F00E946901FACFDF91CF910895ECE7CF
:10031000F0E080818064808380818F778083AAE78A
:10032000B0E08C9187608C938081806280838C9117
:1003300080688C93089590917C00907F90937C00CE
:1003400090917C00982B90937C0080917A0080643F
:1003500080937A0080917A0086FDFCCF80917900AD
:1003600008953898409A0E9487010E94390187E6D3
:1003700090E00E94C6008091C10080688093C10017
:10038000789481E00E941F0187E291E00E947B0146
:1003900060E081E00E9431018DE291E00E947B01EA
:1003A0002FEF83ED90E3215080409040E1F700C0B3
:1003B000000081E00E941F010E9486006CE370E053
:1003C00088E290E00E9453008823E1F06CE370E043
:1003D00088E290E00E946C008091E9019091EA012E
:1003E00001979093EA018093E90197FF09C08091FA
:1003F00025019091260101979093EA018093E901EC
:100400000E9486006EE670E08AE590E00E9453004C
:100410008823F1F06EE670E08AE590E00E946C00BF
:100420008091E9019091EA0101969093EA0180930D
:10043000E901209125013091260121503109281729
:10044000390720F41092EA011092E9010E94860017
:1004500062ED70E08EEB90E00E945300882391F0F3
:1004600062ED70E08EEB90E00E946C00E091E9019B
:10047000F091EA01EE0FFF1FE050FF4F8081918164
:100480000E94DC008091E801882309F497CF0E9444
:0C049000BE001092E80192CFF894FFCF5C
:10049C003B014C015D016E017F019001A101B20194
:1004AC00C301D40120000000000000000000000087
:1004BC0000000000000A004C61622039004E6963A4
:1004CC006F6C6173204E6576656E0048656C6C6F61
:1004DC00202020202020202020202000486F772062
:1004EC0061726520796F753F2020202000492061C2
:1004FC006D20646F696E672077656C6C20004920F5
:10050C00616D207361642020202020202020004970
:10051C00206C6F7665204545313039202020200035
:10052C004669676874204F6E2120202020202020EF
:10053C0000476F6F646279652020202020202020E6
:10054C00200053656520796F7520736F6F6E2120C5
:10055C002020005768617420746F207361792E2EEF
:10056C002E20200048616861686168616861202004
:06057C00202020200000F9
:00000001FF
