:100000000C9434000C9451000C9451000C94510049
:100010000C9451000C9451000C9451000C9451001C
:100020000C9451000C9451000C9451000C94C2009B
:100030000C9451000C9451000C9451000C945100FC
:100040000C9451000C9451000C9451000C945100EC
:100050000C9451000C9451000C9451000C945100DC
:100060000C9451000C94510011241FBECFEFD8E026
:10007000DEBFCDBF11E0A0E0B1E0E8ECF4E002C0EB
:1000800005900D92AE31B107D9F721E0AEE1B1E0B4
:1000900001C01D92A432B207E1F70E949A010C94AC
:1000A00062020C940000E1E8F0E0208128602083E7
:1000B000AFE6B0E02C9122602C939093890080935E
:1000C000880080818460808308950F931F93CF936D
:1000D000DF93EC018B0180E00E948401282F30E047
:1000E0002C173D0724F081E0021713070CF480E081
:1000F0008170DF91CF911F910F9108950F931F93FE
:10010000CF93DF93EC018B018FE39CE90197F1F72B
:1001100000C00000B801CE010E9465008111FACF35
:100120008FE39CE90197F1F700C00000DF91CF91C8
:100130001F910F91089580911F01882359F060E06D
:1001400080E00E941A0180912201805D0E9452018C
:1001500010921F0180911E01882359F061E080E018
:100160000E941A0180912101805D0E94520110922B
:100170001E0163E080E00E941A0180912001805DF1
:100180000C9452011F920F920FB60F9211248F936D
:1001900080912301882359F1809120018F5F809302
:1001A0002001809120018A3050F01092200180912E
:1001B00021018F5F8093210181E080931E01809156
:1001C00021018A3050F010922101809122018F5F2D
:1001D0008093220181E080931F018091220186306B
:1001E00030F01092220110922101109220018F9183
:1001F0000F900FBE0F901F9018959BB19F709BB9E9
:100200009BB1807F892B8BB9299A299A29980895C7
:10021000CF93C82F28980E94FD008C2F8295807F55
:100220000E94FD008FE39FE10197F1F700C00000FD
:10023000CF910895811102C080E801C080EC860F43
:100240000C940801209A219A549A559A569A579AD2
:100250008FE59AEE0197F1F700C0000080E30E945D
:10026000FD008FE19EE40197F1F700C0000080E3FC
:100270000E94FD008FED91E00197F1F700C00000B2
:1002800080E30E94FD0080E20E94FD008FE39FE179
:100290000197F1F700C0000088E20E9408018FE09A
:1002A0000C940801CF93C82F289A0E94FD008C2F30
:1002B0008295807F0E94FD008FE39FE10197F1F717
:1002C00000C00000CF910895CF93DF93EC01899196
:1002D000882319F00E945201FACFDF91CF9108953F
:1002E000ECE7F0E080818064808380818F77808379
:1002F000AAE7B0E08C9187608C93808180628083D4
:100300008C9180688C93089590917C00907F90935D
:100310007C0090917C00982B90937C0080917A00D7
:10032000806480937A0080917A0086FDFCCF809172
:100330007900089589E09DE30E94530078943898ED
:10034000409A0E9470010E94220181E00E940801EF
:1003500080E091E00E94640160E081E00E941A0167
:1003600086E091E00E9464012FEF83ED90E321503D
:1003700080409040E1F700C0000081E00E94080149
:10038000C1E0D2E080912301811151C06EE670E09E
:1003900084E690E00E9465008823A1F16EE670E09B
:1003A00084E690E00E947E001092220110922101CA
:1003B0001092200160E080E00E941A0180912201E9
:1003C000805D0E94520180912101805D0E94520156
:1003D00062E080E00E941A0184E191E00E946401E1
:1003E00063E080E00E941A0180912001805D0E94FC
:1003F000520165E080E00E941A0186E191E00E94CE
:100400006401C0CF6CE370E082E390E00E9465007D
:10041000882309F4B7CF6CE370E082E390E00E9498
:100420007E00C093230180918100836017C08130DA
:1004300051F50E949B006CE370E082E390E00E9423
:100440006500882371F06CE370E082E390E00E9425
:100450007E001092230180918100887F809381002B
:1004600091CF6EE670E084E690E00E9465008823FC
:1004700009F488CF6EE670E084E690E00E947E008A
:10048000D09323017FCF6CE370E082E390E00E9481
:100490006500882329F06CE370E082E390E00DC0F2
:1004A0006EE670E084E690E00E946500882309F41F
:1004B00069CF6EE670E084E690E00E947E00C09313
:0804C000230160CFF894FFCF87
:1004C8004C61622038004E69636F6C6173204E6521
:0E04D80076656E002E007365636F6E647300B0
:00000001FF
