:100000000C9434000C943E000C943E000C943E0082
:100010000C943E000C943E000C943E000C943E0068
:100020000C943E000C943E000C943E000C943E0058
:100030000C943E000C943E000C943E000C943E0048
:100040000C943E000C943E000C943E000C943E0038
:100050000C943E000C943E000C943E000C943E0028
:100060000C943E000C943E0011241FBECFEFD8E04C
:10007000DEBFCDBF0E94B3000C94E0000C940000E2
:100080009BB19F709BB99BB1807F892B8BB9299ABB
:10009000299A29980895CF93C82F28980E94400044
:1000A0008C2F8295807F0E9440008FE39FE1019713
:1000B000F1F700C00000CF910895811102C080E8DF
:1000C00001C080EC860F0C944B00209A219A549A20
:1000D000559A569A579A8FE59AEE0197F1F700C014
:1000E000000080E30E9440008FE19EE40197F1F759
:1000F00000C0000080E30E9440008FED91E0019776
:10010000F1F700C0000080E30E94400080E20E94FE
:1001100040008FE39FE10197F1F700C0000088E203
:100120000E944B008FE00C944B00CF93C82F289A6D
:100130000E9440008C2F8295807F0E9440008FE3B8
:100140009FE10197F1F700C00000CF910895CF9390
:10015000DF93EC018991882319F00E949500FACF72
:10016000DF91CF91089587B18B7E87B9429A449AE7
:100170000E94650080E0D1E0C0E0329BD0E0349B7B
:10018000D1E08F5F8A3094F0D13029F4CF5FCA304C
:100190002CF0C0E003C0C150C7FDC9E081E00E945F
:1001A0004B0080E38C0F0E94950080E02FEF30E73A
:1001B00092E0215030409040E1F700C00000DDCFD8
:0401C000F894FFCFE1
:00000001FF
