:100000000C9434000C943E000C943E000C943E0082
:100010000C943E000C943E000C943E000C943E0068
:100020000C943E000C943E000C943E000C943E0058
:100030000C943E000C943E000C943E000C943E0048
:100040000C943E000C943E000C943E000C943E0038
:100050000C943E000C943E000C943E000C943E0028
:100060000C943E000C943E0011241FBECFEFD8E04C
:10007000DEBFCDBF0E9482000C94AD000C94000046
:10008000811102C05A9808955A9A089581E00E94F9
:1000900040002FEF84E39CE0215080409040E1F746
:1000A00000C000005A982FEF84E39CE0215080406C
:1000B0009040E1F700C00000089581E00E944000F8
:1000C0002FEF8EE994E2215080409040E1F700C08C
:1000D00000005A982FEF84E39CE02150804090402C
:1000E000E1F700C00000089523B130E002C035956B
:1000F00027958A95E2F72170332781E02827822F00
:1001000081700895239824982598529A2B9A2C9AB6
:100110002D9A85E00E947400882331F00E944600E9
:100120000E9446000E945D0084E00E9474008823C3
:1001300031F00E9446000E9446000E94460083E083
:100140000E947400882329F30E945D000E944600EB
:0E0150000E945D000E944600DCCFF894FFCFB5
:00000001FF
