:100000000C9434000C9449000C9449000C94490061
:100010000C9449000C9449000C9449000C9449003C
:100020000C9449000C9449000C9449000C9449002C
:100030000C9449000C9449000C9449000C9449001C
:100040000C9449000C9449000C9449000C9449000C
:100050000C9449000C9449000C9449000C944900FC
:100060000C9449000C94490011241FBECFEFD8E036
:10007000DEBFCDBF11E0A0E0B1E0ECE1F7E002C0EF
:1000800005900D92AE31B107D9F70E9426010C946C
:100090008C030C940000CF92DF92FF920F931F937A
:1000A000CF93DF931F92CDB7DEB723E0F22EC12CA2
:1000B000D12C91E0892F99830E940F01CC0CDD1C7B
:1000C000082F017010E0C00ED11E99819F5F9630FD
:1000D00089F7FA9471F7C6010F90DF91CF911F91C4
:1000E0000F91FF90DF90CF900C941E039BB19F70F7
:1000F0009BB99BB1807F892B8BB9299A299A299822
:100100000895CF93C82F28980E9476008C2F82954F
:10011000807F0E9476008FE39FE10197F1F700C096
:100120000000CF910895811102C080E801C080ECE9
:10013000860F0C948100209A219A549A559A569AC7
:10014000579A8FE59AEE0197F1F700C0000080E31F
:100150000E9476008FE19EE40197F1F700C0000055
:1001600080E30E9476008FED91E00197F1F700C0E7
:10017000000080E30E94760080E20E9476008FE318
:100180009FE10197F1F700C0000088E20E94810022
:100190008FE00C948100CF93C82F289A0E9476009C
:1001A0008C2F8295807F0E9476008FE39FE10197DC
:1001B000F1F700C00000CF910895CF93DF93EC01D9
:1001C0008991882319F00E94CB00FACFDF91CF915B
:1001D0000895ECE7F0E080818064808380818F77F0
:1001E0008083AAE7B0E08C9184608C938C918260CC
:1001F0008C938C9181608C938081877F80838081B8
:100200008B7F808380818D7F808380818E7F8083C0
:100210008081806280838C9180688C930895909116
:100220007C0021E030E001C0220F8A95EAF7922B92
:1002300090937C0080917A00806480937A00809112
:100240007A0086FDFCCF8091790008950E949B0082
:100250000E94E9000E944B0081E00E94810084E03E
:1002600091E00E94DD0060E081E00E9493008AE05E
:1002700091E00E94DD002FEF83ED90E3215080405C
:100280009040E1F700C0000081E00E9481000E94E0
:100290001903BC01882777FD8095982F0E94DC0107
:1002A00020EE31E040EF59E30E9440020E94AE018F
:1002B00080E00E94930088E191E00E94DD00D0E0A0
:1002C00083E00E940F01682F70E080E090E00E94C0
:1002D000DC0120EE31E040EF59E30E9440020E9431
:1002E000AE01C62FD61711F16D2F81E00E94930049
:1002F0008AE191E00E94DD006C2F81E00E94930072
:1003000088E191E00E94DD0083E00E940F01682FE8
:1003100070E080E090E00E94DC0120EE31E040EFF0
:1003200059E30E9440020E94AE01C62F60E081E0C6
:100330000E9493008AE191E00E94DD006C2F81E031
:100340000E9493008CE191E00E94DD008FE39CE924
:100350000197F1F700C00000DC2FB2CF70D088F019
:100360009F5790F0B92F9927B751A0F0D1F0660FA1
:10037000771F881F991F1AF0BA95C9F712C0B130BC
:1003800081F077D0B1E0089574C0672F782F882767
:10039000B85F39F0B93FCCF3869577956795B395FB
:1003A000D9F73EF490958095709561957F4F8F4F6A
:1003B0009F4F0895E89409C097FB3EF4909580956F
:1003C000709561957F4F8F4F9F4F9923A9F0F92F1B
:1003D00096E9BB279395F695879577956795B79599
:1003E000F111F8CFFAF4BB0F11F460FF1BC06F5F7F
:1003F0007F4F8F4F9F4F16C0882311F096E911C091
:10040000772321F09EE8872F762F05C0662371F0B1
:1004100096E8862F70E060E02AF09A95660F771FC5
:10042000881FDAF7880F9695879597F9089557FDF5
:100430009058440F551F59F05F3F71F04795880F52
:1004400097FB991F61F09F3F79F0879508951216E9
:1004500013061406551FF2CF4695F1DF08C0161695
:1004600017061806991FF1CF869571056105089446
:100470000895E894BB2766277727CB0197F908955D
:100480000BD078C069D028F06ED018F0952309F011
:100490005AC05FC01124EECFCADFA0F3959FD1F3FD
:1004A000950F50E0551F629FF001729FBB27F00D22
:1004B000B11D639FAA27F00DB11DAA1F649F662777
:1004C000B00DA11D661F829F2227B00DA11D621FC6
:1004D000739FB00DA11D621F839FA00D611D221F80
:1004E000749F3327A00D611D231F849F600D211D64
:1004F000822F762F6A2F11249F5750408AF0E1F007
:1005000088234AF0EE0FFF1FBB1F661F771F881F4F
:1005100091505040A9F79E3F510570F014C0AACFEA
:100520005F3FECF3983EDCF3869577956795B7953A
:10053000F795E7959F5FC1F7FE2B880F911D969564
:10054000879597F9089597F99F6780E870E060E0D4
:1005500008959FEF80EC089500240A94161617065C
:1005600018060906089500240A94121613061406A4
:1005700005060895092E0394000C11F4882352F007
:10058000BB0F40F4BF2B11F460FF04C06F5F7F4FBF
:100590008F4F9F4F08958F929F92AF92BF92CF92AD
:1005A000DF92EF92FF92CF93DF93EC016881798124
:1005B0008A819B81611571058105910521F464E2B1
:1005C00079ED8BE597E02DE133EF41E050E00E94BB
:1005D000290349015A019B01AC01A7EAB1E40E9439
:1005E00048036B017C01ACEEB4EFA50194010E94BD
:1005F0005603C60ED71EE81EF91EF7FE06C081E0A0
:10060000C81AD108E10880E8F80AC882D982EA82CB
:10061000FB82C6019F77DF91CF91FF90EF90DF9033
:10062000CF90BF90AF909F908F9008950E94CB0283
:10063000089580E091E00E94CB020895A0E0B0E030
:100640008093000190930101A0930201B0930301F4
:100650000895052E97FB1EF400940E94400357FD59
:1006600007D00E945B0307FC03D04EF40C944003B8
:1006700050954095309521953F4F4F4F5F4F0895CE
:1006800090958095709561957F4F8F4F9F4F0895FE
:100690000E947D03A59F900DB49F900DA49F800D97
:1006A000911D11240895B7FF0C9448030E9448033C
:1006B000821B930B0895A1E21A2EAA1BBB1BFD01FE
:1006C0000DC0AA1FBB1FEE1FFF1FA217B307E40731
:1006D000F50720F0A21BB30BE40BF50B661F771F89
:1006E000881F991F1A9469F7609570958095909569
:1006F0009B01AC01BD01CF010895A29FB001B39F42
:10070000C001A39F700D811D1124911DB29F700D1A
:0C071000811D1124911D0895F894FFCF65
:10071C00010000004C61622036004E69636F6C6111
:0E072C0073204E6576656E00580020005E005A
:00000001FF
