:100000000C9434000C9451000C9451000C94510049
:100010000C9487000C9451000C9451000C945100E6
:100020000C9451000C9451000C9451000C9451000C
:100030000C9451000C9451000C9451000C945100FC
:100040000C9451000C9451000C9451000C945100EC
:100050000C9451000C9451000C9451000C945100DC
:100060000C9451000C94510011241FBECFEFD8E026
:10007000DEBFCDBF11E0A0E0B1E0E2E5FBE002C0F1
:1000800005900D92AA33B107D9F721E0AAE3B1E0B8
:1000900001C01D92AF33B207E1F70E945A010C94E0
:1000A000A7050C94000005966AE070E00E945F02CC
:1000B0006115710539F085E38A95F1F7000061500B
:1000C0007109F6CF08950F931F93CF93DF93EC013F
:1000D0009C0140E050E060E472E48FE090E00E9418
:1000E000730256954795379527958901209751F0CA
:1000F0002C9AC8010E9453002C98C8010E945300FA
:100100002197F4CFDF91CF911F910F9108951F9206
:100110000F920FB60F9211242F938F939F9396B146
:10012000892F8072927020913D01211108C088238F
:1001300011F081E02CC09923A9F182E01DC020912B
:100140003D01213049F4811103C010923E0116C0D7
:10015000992341F183E01BC020913D01223049F4F5
:10016000911103C010923E0114C08823D9F083E09E
:1001700003C0911109C081E080933E0180913A0152
:1001800090913B0101970AC081110CC082E08093DD
:100190003E0180913A0190913B01019690933B0181
:1001A00080933A0190913E0180913D01981739F07A
:1001B00081E080933C0180913E0180933D019F91BD
:1001C0008F912F910F900FBE0F901F9018959BB19C
:1001D0009F709BB99BB1807F892B8BB9299A299AF3
:1001E00029980895CF93C82F28980E94E7008C2F54
:1001F0008295807F0E94E7008FE39FE10197F1F7EE
:1002000000C00000CF910895811102C080E801C0B4
:1002100080EC860F0C94F200209A219A549A559AF9
:10022000569A579A8FE59AEE0197F1F700C00000B1
:1002300080E30E94E7008FE19EE40197F1F700C0A0
:10024000000080E30E94E7008FED91E00197F1F755
:1002500000C0000080E30E94E70080E20E94E70007
:100260008FE39FE10197F1F700C0000088E20E9450
:10027000F2008FE00C94F200CF93C82F289A0E94CE
:10028000E7008C2F8295807F0E94E7008FE39FE13B
:100290000197F1F700C00000CF910895CF93DF934D
:1002A000EC018991882319F00E943C01FACFDF917B
:1002B000CF910895CF93DF93CDB7DEB7A2970FB656
:1002C000F894DEBF0FBECDBF0E940C0187B18D7DBB
:1002D00087B988B1826288B9249A2C988091680085
:1002E00082608093680080916C00826280936C00D1
:1002F000789481E00E94F20080E191E00E944E013A
:1003000060E081E00E94040186E191E00E944E01DC
:100310002FEF33ED80E3215030408040E1F700C003
:10032000000081E00E94F20096B1892F807291FD59
:1003300007C0811103C010923D0109C081E005C0D2
:10034000811102C082E001C083E080933D01809171
:100350003D0180933E0160E080E00E94040181E065
:100360000E94F20080913A0190913B019F938F93FC
:1003700084E291E09F938F931F9281E18F937E019E
:1003800092E1E90EF11CFF92EF920E94C802C701B0
:100390000E944E010FB6F894DEBF0FBECDBF34E20F
:1003A000C32E31E0D32E41E1442E560151E1352ECA
:1003B0008E010F5F1F4F60E4862E912C70E3672E35
:1003C00071E0772E80913C018823E1F310923C018B
:1003D00060E080E00E94040181E00E94F2008091D0
:1003E0003A0190913B019F938F93DF92CF921F929E
:1003F0004F92FF92EF920E94C802C7010E944E01E5
:1004000080913A0190913B01877099270FB6F8943B
:10041000DEBF0FBECDBF892BA9F660E080E00E9451
:10042000040181E00E94F20080913A0190913B0129
:100430009F938F93BF92AF921F923F921F930F9300
:100440000E94C802C8010E944E0180913A01909119
:100450003B01B4010E945F020FB6F894DEBF0FBEED
:10046000CDBF97FD0796FC0123E0F595E7952A950A
:10047000E1F7F7FF03C0F195E195F109EE0FFF1FDA
:10048000E050FF4F5080218060E081E00E94040135
:100490002F925F927F926F921F924F921F930F93B2
:1004A0000E94C802C8010E944E01852D922D0E9413
:1004B00063000FB6F894DEBF0FBECDBF83CF97FBAE
:1004C000072E16F4009407D077FD09D00E949202FF
:1004D00007FC05D03EF4909581959F4F0895709547
:1004E00061957F4F0895052E97FB1EF400940E949E
:1004F0008A0257FD07D00E94A60207FC03D04EF4E3
:100500000C948A0250954095309521953F4F4F4F5E
:100510005F4F089590958095709561957F4F8F4FAF
:100520009F4F0895AA1BBB1B51E107C0AA1FBB1F09
:10053000A617B70710F0A61BB70B881F991F5A956F
:10054000A9F780959095BC01CD010895A1E21A2EDE
:10055000AA1BBB1BFD010DC0AA1FBB1FEE1FFF1F67
:10056000A217B307E407F50720F0A21BB30BE40BB7
:10057000F50B661F771F881F991F1A9469F76095FE
:100580007095809590959B01AC01BD01CF010895B8
:10059000AEE0B0E0EEECF2E00C947E050D891E8931
:1005A0008F89988D26E02C831A83098397FF02C0D8
:1005B00080E090E801979E838D83AE01455E5F4F9A
:1005C000698D7A8DCE0101960E94F8024D815E817F
:1005D00057FD0AC02F813885421753070CF49A0142
:1005E000F801E20FF31F10822E96E4E00C949A05B6
:1005F000ACE0B0E0EEEFF2E00C9470057C016B0132
:100600008A01FC0117821682838181FFBDC1CE0160
:1006100001964C01F7019381F60193FD859193FFBB
:1006200081916F01882309F4ABC1853239F493FDC0
:10063000859193FF81916F01853229F4B70190E094
:100640000E94E004E7CF512C312C20E02032A0F4AE
:100650008B3269F030F4803259F0833269F42061D2
:100660002CC08D3239F0803339F4216026C02260ED
:10067000246023C0286021C027FD27C030ED380F3B
:100680003A3078F426FF06C0FAE05F9E300D112460
:10069000532E13C08AE0389E300D1124332E206271
:1006A0000CC08E3221F426FD6BC1206406C08C364E
:1006B00011F4206802C0883641F4F60193FD85915B
:1006C00093FF81916F018111C1CF982F9F7D955428
:1006D000933028F40C5F1F4FFFE3F9830DC083367E
:1006E00031F0833771F0833509F05BC022C0F80127
:1006F000808189830E5F1F4F44244394512C540101
:1007000015C03801F2E06F0E711CF801A080B180B5
:1007100026FF03C0652D70E002C06FEF7FEFC501BB
:100720002C870E94D5042C0183012C852F77222E43
:1007300017C03801F2E06F0E711CF801A080B18083
:1007400026FF03C0652D70E002C06FEF7FEFC5018B
:100750002C870E94CA042C012C852068222E83013C
:1007600023FC1BC0832D90E048165906B0F4B70156
:1007700080E290E00E94E0043A94F4CFF50127FC77
:10078000859127FE81915F01B70190E00E94E0040E
:1007900031103A94F1E04F1A51084114510471F7A5
:1007A000E5C0843611F0893639F5F80127FF07C016
:1007B00060817181828193810C5F1F4F08C06081CD
:1007C0007181882777FD8095982F0E5F1F4F2F76B8
:1007D000B22E97FF09C090958095709561957F4FD7
:1007E0008F4F9F4F2068B22E2AE030E0A4010E9474
:1007F0001205A82EA81844C0853729F42F7EB22EE2
:100800002AE030E025C0F22FF97FBF2E8F36C1F0ED
:1008100018F4883579F0B4C0803719F0883721F0A2
:10082000AFC02F2F2061B22EB4FE0DC08B2D84607F
:10083000B82E09C024FF0AC09F2F9660B92E06C0AB
:1008400028E030E005C020E130E002C020E132E0E5
:10085000F801B7FE07C060817181828193810C5FCE
:100860001F4F06C06081718180E090E00E5F1F4FD6
:10087000A4010E941205A82EA818FB2DFF77BF2EF9
:10088000B6FE0BC02B2D2E7FA51450F4B4FE0AC06B
:10089000B2FC08C02B2D2E7E05C07A2C2B2D03C058
:1008A0007A2C01C0752C24FF0DC0FE01EA0DF11D4C
:1008B0008081803311F4297E09C022FF06C0739421
:1008C000739404C0822F867809F0739423FD13C0BB
:1008D00020FF06C05A2C731418F4530C5718732CAD
:1008E000731468F4B70180E290E02C870E94E00462
:1008F00073942C85F5CF731410F4371801C0312C84
:1009000024FF12C0B70180E390E02C870E94E0042E
:100910002C8522FF17C021FF03C088E590E002C0AC
:1009200088E790E0B7010CC0822F867859F021FD4E
:1009300002C080E201C08BE227FD8DE2B70190E0AA
:100940000E94E004A51438F4B70180E390E00E940F
:10095000E0045A94F7CFAA94F401EA0DF11D8081C6
:10096000B70190E00E94E004A110F5CF332009F414
:1009700051CEB70180E290E00E94E0043A94F6CFB5
:10098000F7018681978102C08FEF9FEF2C96E2E1FD
:100990000C948C05FC010590615070400110D8F753
:1009A000809590958E0F9F1F0895FC0161507040B7
:1009B00001900110D8F7809590958E0F9F1F089594
:1009C0000F931F93CF93DF93182F092FEB018B8188
:1009D00081FD03C08FEF9FEF20C082FF10C04E81CA
:1009E0005F812C813D81421753077CF4E881F981B6
:1009F0009F012F5F3F4F39832883108306C0E8850E
:100A0000F985812F0995892B29F72E813F812F5F49
:100A10003F4F3F832E83812F902FDF91CF911F91E6
:100A20000F910895FA01AA27283051F1203181F160
:100A3000E8946F936E7F6E5F7F4F8F4F9F4FAF4FE6
:100A4000B1E03ED0B4E03CD0670F781F891F9A1FF9
:100A5000A11D680F791F8A1F911DA11D6A0F711DAD
:100A6000811D911DA11D20D009F468943F912AE0B9
:100A7000269F11243019305D3193DEF6CF010895A1
:100A8000462F4770405D4193B3E00FD0C9F7F6CFD2
:100A9000462F4F70405D4A3318F0495D31FD40529A
:100AA000419302D0A9F7EACFB4E0A6959795879530
:100AB00077956795BA95C9F700976105710508950F
:100AC0009B01AC010A2E06945795479537952795BB
:100AD000BA95C9F7620F731F841F951FA01D089553
:100AE0002F923F924F925F926F927F928F929F923E
:100AF000AF92BF92CF92DF92EF92FF920F931F932C
:100B0000CF93DF93CDB7DEB7CA1BDB0B0FB6F894DC
:100B1000DEBF0FBECDBF09942A88398848885F841C
:100B20006E847D848C849B84AA84B984C884DF808D
:100B3000EE80FD800C811B81AA81B981CE0FD11D71
:100B40000FB6F894DEBF0FBECDBFED010895F89447
:020B5000FFCFD5
:100B5200060126014A015D018801B801EE010B027E
:100B62004C61622037004E69636F6C6173204E6581
:100B720076656E00436F756E7465723A2025640067
:0A0B8200467265713A2025640000F8
:00000001FF
